{
  "_format": "hh-sol-artifact-1",
  "contractName": "Lottery",
  "sourceName": "contracts/Lottery.sol",
  "abi": [
    {
      "inputs": [
        {
          "internalType": "address",
          "name": "",
          "type": "address"
        },
        {
          "internalType": "uint256",
          "name": "",
          "type": "uint256"
        }
      ],
      "name": "addressToUserIds",
      "outputs": [
        {
          "internalType": "uint256",
          "name": "",
          "type": "uint256"
        }
      ],
      "stateMutability": "view",
      "type": "function"
    },
    {
      "inputs": [
        {
          "internalType": "uint256",
          "name": "id",
          "type": "uint256"
        }
      ],
      "name": "getLotteryNumberByUserId",
      "outputs": [
        {
          "internalType": "uint8[]",
          "name": "",
          "type": "uint8[]"
        }
      ],
      "stateMutability": "view",
      "type": "function"
    },
    {
      "inputs": [
        {
          "internalType": "address",
          "name": "userAddress",
          "type": "address"
        }
      ],
      "name": "getUserIdsByAddress",
      "outputs": [
        {
          "internalType": "uint256[]",
          "name": "",
          "type": "uint256[]"
        }
      ],
      "stateMutability": "view",
      "type": "function"
    },
    {
      "inputs": [],
      "name": "getWinningLotteryNumber",
      "outputs": [
        {
          "internalType": "uint256[]",
          "name": "",
          "type": "uint256[]"
        }
      ],
      "stateMutability": "view",
      "type": "function"
    },
    {
      "inputs": [
        {
          "internalType": "uint256",
          "name": "",
          "type": "uint256"
        }
      ],
      "name": "idToLotteryPlayers",
      "outputs": [
        {
          "internalType": "uint256",
          "name": "id",
          "type": "uint256"
        },
        {
          "internalType": "address",
          "name": "userAddress",
          "type": "address"
        }
      ],
      "stateMutability": "view",
      "type": "function"
    },
    {
      "inputs": [],
      "name": "initialize",
      "outputs": [],
      "stateMutability": "nonpayable",
      "type": "function"
    },
    {
      "inputs": [],
      "name": "lastUserId",
      "outputs": [
        {
          "internalType": "uint256",
          "name": "",
          "type": "uint256"
        }
      ],
      "stateMutability": "view",
      "type": "function"
    },
    {
      "inputs": [],
      "name": "lotteryBet",
      "outputs": [
        {
          "internalType": "uint256",
          "name": "",
          "type": "uint256"
        }
      ],
      "stateMutability": "view",
      "type": "function"
    },
    {
      "inputs": [],
      "name": "luckDraw",
      "outputs": [],
      "stateMutability": "nonpayable",
      "type": "function"
    },
    {
      "inputs": [],
      "name": "owner",
      "outputs": [
        {
          "internalType": "address",
          "name": "",
          "type": "address"
        }
      ],
      "stateMutability": "view",
      "type": "function"
    },
    {
      "inputs": [
        {
          "internalType": "uint8[]",
          "name": "buyLotteryNumber",
          "type": "uint8[]"
        }
      ],
      "name": "throwIn",
      "outputs": [],
      "stateMutability": "payable",
      "type": "function"
    },
    {
      "inputs": [
        {
          "internalType": "uint256",
          "name": "",
          "type": "uint256"
        }
      ],
      "name": "winningLotteryNumber",
      "outputs": [
        {
          "internalType": "uint256",
          "name": "",
          "type": "uint256"
        }
      ],
      "stateMutability": "view",
      "type": "function"
    }
  ],
  "bytecode": "0x608060405234801561001057600080fd5b5061143d806100206000396000f3fe6080604052600436106100a75760003560e01c80636ddc33b8116100645780636ddc33b8146103415780637a2392341461036c5780638129fc1c146103db5780638da5cb5b146103f2578063936c878214610433578063e6b54bb61461044a576100a7565b806314fefb61146100ac578063273b6551146101185780632a4fd9a1146101be5780632f65f29a1461024e578063348d4487146102c7578063688cad66146102f2575b600080fd5b3480156100b857600080fd5b506100e5600480360360208110156100cf57600080fd5b81019080803590602001909291905050506104b6565b604051808381526020018273ffffffffffffffffffffffffffffffffffffffff1681526020019250505060405180910390f35b34801561012457600080fd5b506101676004803603602081101561013b57600080fd5b81019080803573ffffffffffffffffffffffffffffffffffffffff1690602001909291905050506104fa565b6040518080602001828103825283818151815260200191508051906020019060200280838360005b838110156101aa57808201518184015260208101905061018f565b505050509050019250505060405180910390f35b3480156101ca57600080fd5b506101f7600480360360208110156101e157600080fd5b8101908080359060200190929190505050610591565b6040518080602001828103825283818151815260200191508051906020019060200280838360005b8381101561023a57808201518184015260208101905061021f565b505050509050019250505060405180910390f35b6102c56004803603602081101561026457600080fd5b810190808035906020019064010000000081111561028157600080fd5b82018360208201111561029357600080fd5b803590602001918460208302840111640100000000831117156102b557600080fd5b909192939192939050505061069f565b005b3480156102d357600080fd5b506102dc6108ae565b6040518082815260200191505060405180910390f35b3480156102fe57600080fd5b5061032b6004803603602081101561031557600080fd5b81019080803590602001909291905050506108b4565b6040518082815260200191505060405180910390f35b34801561034d57600080fd5b506103566108d5565b6040518082815260200191505060405180910390f35b34801561037857600080fd5b506103c56004803603604081101561038f57600080fd5b81019080803573ffffffffffffffffffffffffffffffffffffffff169060200190929190803590602001909291905050506108db565b6040518082815260200191505060405180910390f35b3480156103e757600080fd5b506103f0610909565b005b3480156103fe57600080fd5b50610407610a5f565b604051808273ffffffffffffffffffffffffffffffffffffffff16815260200191505060405180910390f35b34801561043f57600080fd5b50610448610a85565b005b34801561045657600080fd5b5061045f611264565b6040518080602001828103825283818151815260200191508051906020019060200280838360005b838110156104a2578082015181840152602081019050610487565b505050509050019250505060405180910390f35b60376020528060005260406000206000915090508060000154908060010160009054906101000a900473ffffffffffffffffffffffffffffffffffffffff16905082565b6060603860008373ffffffffffffffffffffffffffffffffffffffff1673ffffffffffffffffffffffffffffffffffffffff16815260200190815260200160002080548060200260200160405190810160405280929190818152602001828054801561058557602002820191906000526020600020905b815481526020019060010190808311610571575b50505050509050919050565b606060355482111561060b576040517f08c379a00000000000000000000000000000000000000000000000000000000081526004018080602001828103825260108152602001807f6964203c3d206c6173745573657249640000000000000000000000000000000081525060200191505060405180910390fd5b60376000603554815260200190815260200160002060020180548060200260200160405190810160405280929190818152602001828054801561069357602002820191906000526020600020906000905b82829054906101000a900460ff1660ff168152602001906001019060208260000104928301926001038202915080841161065c5790505b50505050509050919050565b6000603380549050146106b157600080fd5b6004828290501461072a576040517f08c379a000000000000000000000000000000000000000000000000000000000815260040180806020018281038252601c8152602001807f6275794c6f74746572794e756d6265722e6c656e677468203d3d20340000000081525060200191505060405180910390fd5b6035600081548092919060010191905055506107446112d3565b604051806060016040528060355481526020013373ffffffffffffffffffffffffffffffffffffffff168152602001848480806020026020016040519081016040528093929190818152602001838360200280828437600081840152601f19601f820116905080830192505050505050508152509050806037600060355481526020019081526020016000206000820151816000015560208201518160010160006101000a81548173ffffffffffffffffffffffffffffffffffffffff021916908373ffffffffffffffffffffffffffffffffffffffff160217905550604082015181600201908051906020019061083d92919061130a565b50905050603860003373ffffffffffffffffffffffffffffffffffffffff1673ffffffffffffffffffffffffffffffffffffffff1681526020019081526020016000206035549080600181540180825580915050600190039060005260206000200160009091909190915055505050565b60355481565b603381815481106108c157fe5b906000526020600020016000915090505481565b60345481565b603860205281600052604060002081815481106108f457fe5b90600052602060002001600091509150505481565b600060019054906101000a900460ff168061092857506109276112bc565b5b8061093e575060008054906101000a900460ff16155b610993576040517f08c379a000000000000000000000000000000000000000000000000000000000815260040180806020018281038252602e8152602001806113da602e913960400191505060405180910390fd5b60008060019054906101000a900460ff1615905080156109e3576001600060016101000a81548160ff02191690831515021790555060016000806101000a81548160ff0219169083151502179055505b670de0b6b3a7640000603481905550600060358190555033603660006101000a81548173ffffffffffffffffffffffffffffffffffffffff021916908373ffffffffffffffffffffffffffffffffffffffff1602179055508015610a5c5760008060016101000a81548160ff0219169083151502179055505b50565b603660009054906101000a900473ffffffffffffffffffffffffffffffffffffffff1681565b60006035541415610a9557600080fd5b600060338054905014610aa757600080fd5b603660009054906101000a900473ffffffffffffffffffffffffffffffffffffffff1673ffffffffffffffffffffffffffffffffffffffff163373ffffffffffffffffffffffffffffffffffffffff1614610b0157600080fd5b6033600a4244603660009054906101000a900473ffffffffffffffffffffffffffffffffffffffff16603554604051602001808581526020018481526020018373ffffffffffffffffffffffffffffffffffffffff1660601b81526014018281526020019450505050506040516020818303038152906040528051906020012060001c81610b8b57fe5b0690806001815401808255809150506001900390600052602060002001600090919091909150556033600a4442603660009054906101000a900473ffffffffffffffffffffffffffffffffffffffff16603554604051602001808581526020018481526020018373ffffffffffffffffffffffffffffffffffffffff1660601b81526014018281526020019450505050506040516020818303038152906040528051906020012060001c81610c3c57fe5b0690806001815401808255809150506001900390600052602060002001600090919091909150556033600a44603660009054906101000a900473ffffffffffffffffffffffffffffffffffffffff1642603554604051602001808581526020018473ffffffffffffffffffffffffffffffffffffffff1660601b81526014018381526020018281526020019450505050506040516020818303038152906040528051906020012060001c81610ced57fe5b0690806001815401808255809150506001900390600052602060002001600090919091909150556033600a44603660009054906101000a900473ffffffffffffffffffffffffffffffffffffffff1660355442604051602001808581526020018473ffffffffffffffffffffffffffffffffffffffff1660601b81526014018381526020018281526020019450505050506040516020818303038152906040528051906020012060001c81610d9e57fe5b0690806001815401808255809150506001900390600052602060002001600090919091909150556000806000600190505b6035548111610ed5576000805b6004811015610e5d5760338181548110610df257fe5b9060005260206000200154603760008581526020019081526020016000206002018281548110610e1e57fe5b90600052602060002090602091828204019190069054906101000a900460ff1660ff161415610e505781806001019250505b8080600101915050610ddc565b506004811415610e945783829080600181540180825580915050600190039060005260206000200160009091909190915055610ec7565b6003811415610ec657828290806001815401808255809150506001900390600052602060002001600090919091909150555b5b508080600101915050610dcf565b5060008280549050118015610eee575060008180549050145b15610fbb57600082805490504781610f0257fe5b04905060005b8380549050811015610fb45760376000858381548110610f2457fe5b9060005260206000200154815260200190815260200160002060010160009054906101000a900473ffffffffffffffffffffffffffffffffffffffff1673ffffffffffffffffffffffffffffffffffffffff166108fc839081150290604051600060405180830381858888f19350505050158015610fa6573d6000803e3d6000fd5b508080600101915050610f08565b5050611260565b60008280549050148015610fd3575060008180549050115b156110a057600081805490504781610fe757fe5b04905060005b8280549050811015611099576037600084838154811061100957fe5b9060005260206000200154815260200190815260200160002060010160009054906101000a900473ffffffffffffffffffffffffffffffffffffffff1673ffffffffffffffffffffffffffffffffffffffff166108fc839081150290604051600060405180830381858888f1935050505015801561108b573d6000803e3d6000fd5b508080600101915050610fed565b505061125f565b600082805490501180156110b8575060008180549050115b1561125e5760008280549050606460504702816110d157fe5b04816110d957fe5b04905060008280549050606460144702816110f057fe5b04816110f857fe5b04905060005b84805490508110156111aa576037600086838154811061111a57fe5b9060005260206000200154815260200190815260200160002060010160009054906101000a900473ffffffffffffffffffffffffffffffffffffffff1673ffffffffffffffffffffffffffffffffffffffff166108fc849081150290604051600060405180830381858888f1935050505015801561119c573d6000803e3d6000fd5b5080806001019150506110fe565b5060005b838054905081101561125a57603760008583815481106111ca57fe5b9060005260206000200154815260200190815260200160002060010160009054906101000a900473ffffffffffffffffffffffffffffffffffffffff1673ffffffffffffffffffffffffffffffffffffffff166108fc839081150290604051600060405180830381858888f1935050505015801561124c573d6000803e3d6000fd5b5080806001019150506111ae565b5050505b5b5b5050565b606060338054806020026020016040519081016040528092919081815260200182805480156112b257602002820191906000526020600020905b81548152602001906001019080831161129e575b5050505050905090565b6000803090506000813b9050600081149250505090565b604051806060016040528060008152602001600073ffffffffffffffffffffffffffffffffffffffff168152602001606081525090565b82805482825590600052602060002090601f016020900481019282156113a05791602002820160005b8382111561137157835183826101000a81548160ff021916908360ff1602179055509260200192600101602081600001049283019260010302611333565b801561139e5782816101000a81549060ff0219169055600101602081600001049283019260010302611371565b505b5090506113ad91906113b1565b5090565b5b808211156113d557600081816101000a81549060ff0219169055506001016113b2565b509056fe436f6e747261637420696e7374616e63652068617320616c7265616479206265656e20696e697469616c697a6564a2646970667358221220a93a2fd15e72758c92cd873ddd0dc177e220ea503bc59dfddc6f6baba34e00b764736f6c63430007000033",
  "linkReferences": {},
  "deployedLinkReferences": {}
}